:020000040800F2
:10000000000A0020A101000815210008172100089E
:10001000192100081B2100081D2100080000000014
:100020000000000000000000000000001F21000888
:100030002121000800000000232100081D1F0008E6
:10004000BB010008BB010008BB010008BB010008A0
:10005000BB010008BB010008BB010008BB01000890
:10006000BB010008BB010008BB010008BB01000880
:10007000BB010008BB010008BB010008BB01000870
:10008000BB010008BB010008BB010008BB01000860
:10009000BB010008BB010008BB010008BB01000850
:1000A000BB010008BB010008BB010008BB01000840
:1000B000BB010008BB010008BB010008BB01000830
:1000C000BB010008BB010008BB010008BB01000820
:1000D000BB01000883020008BB010008BB01000847
:1000E000BB010008BB010008BB010008BB01000800
:1000F000BB010008BB010008BB010008BB010008F0
:10010000BB010008BB010008BB010008BB010008DF
:10011000BB010008BB010008BB010008BB010008CF
:10012000BB010008BB010008BB010008BB010008BF
:10013000BB010008BB010008BB010008BB010008AF
:10014000BB010008BB010008BB010008BB0100089F
:10015000BB010008BB010008BB010008BB0100088F
:10016000BB010008BB010008BB010008BB0100087F
:10017000BB010008BB010008BB010008BB0100086F
:10018000BB010008BB010008DFF810D002F04CFCF6
:1001900000480047111F0008AFF30080000A00204C
:1001A0000648804706480047FEE7FEE7FEE7FEE711
:1001B000FEE7FEE7FEE7FEE7FEE7FEE7970800083A
:1001C0008901000870B54B4904464FF4806201F57F
:1001D000806000F08DF948494FF4807201F5A2600B
:1001E00000F086F90121084600F0BEFE434D0722CB
:1001F0000921284600F073FD07220A21284600F055
:100200006EFD4FF4C06300220221284601F0D8FEA3
:100210000121102000F0D0FE2146394801F046FFB0
:10022000BDE8704001221146252001F0D9BE0A46E2
:1002300010B50146334800F06FF90446012240F240
:1002400027712F4801F08FFD204610BD0A46014658
:100250002C48103000F084B910B52A4800F058F945
:10026000B0F5806F01D0002010BD012010BD2548E1
:1002700010B5103000F04CF908B1002010BD01207D
:1002800010BD38B51E4C40F22551204601F08DFDC1
:1002900050B1204601F0F2FC8DF80000194801220F
:1002A0006946103000F038F940F22775294620469B
:1002B00001F07BFD80B101226946124800F050F93F
:1002C00028B19DF80010204601F0D4FC04E0002283
:1002D0002946204601F047FD40F22531204601F035
:1002E00064FD002804D0204601F0C8FC8DF8000011
:1002F00038BD000040010020400000200000024006
:1003000000100140400500202DE9F0412E4E0F461F
:1003100005461421346802F064F80020C5E9037032
:10032000306818B93560BDE8F081044620690028BE
:10033000FBD12561F7E770B50D46044601805019E1
:100340006080A38000F09FF80026A060A671002DB9
:1003500003D1E16800208847E67170BD70B51A4886
:10036000002504682DE0208850B300F08CF8A168C7
:10037000401A2188884205D2E07908BB0120E0714B
:10038000E1680BE000F07FF8A168401A61888842BC
:1003900006D2E079A0B1E571E168002088470FE05E
:1003A00000F071F8A060A08850B1A179491CC9B2D1
:1003B000A171814204D32580E16800208847E5715E
:1003C0002469002CCFD170BD0000002010B52A4C4C
:1003D000236838B131B12AB1C0E900120021C160EF
:1003E00013B104E0002010BD206004E00B46D96882
:1003F0000029FBD1D860012010BD70B51E4840F225
:10040000DC55046834E0206880470028A0680FD0DD
:1004100058B1294600F03AF848B300F034F8A16822
:100420006268411A0120904721E000F02CF81DE09D
:10043000E8B1294600F02AF830B100F024F8A168AC
:100440006268411A022090471421A06800F01EF84B
:1004500058B12946A06800F019F830B900F013F837
:10046000A1686268411A002090470020A060E468FB
:10047000002CC8D170BD00000400002017490A6894
:10048000104408607047154800687047134A1268A6
:10049000101A884201D90120704700207047704728
:1004A00070B50F4C0F4D02E0606808348047AC42D5
:1004B000FAD370BD70B50C4C084D0C4E0AE029689B
:1004C000E0680268891AA268914203D32968016032
:1004D000606880471034B442F1D370BD080000203A
:1004E000F038000818390008203900086039000881
:1004F0000023C36080E80E0021B1501E024201D1EA
:1005000001207047002070470021C1608160704762
:10051000C1688068081A70472DE9F04104460E460C
:10052000D4E901014318E1685B1A9A4200D31A46E4
:100530001746421E1140451ABD4200D93D4620686B
:100540002A460844314601F033FF7A1B71192068AE
:1005500001F02EFFE0683844E0603846BDE8F081E5
:100560002DE9F04104460E46D4E90201091A8A42F7
:1005700000D30A46616817464A1E10400D1ABD4254
:1005800000D93D4621682A460144304601F010FF5B
:100590007A1B7019216801F00BFFA0683844A06035
:1005A0003846DBE70FB410B598B004461CAB6021A9
:1005B00068461B9A02F084FA014622686846904712
:1005C00018B010BC5DF814FB4A684260096801600D
:1005D00076498160012101657047012101657047FD
:1005E0000021016570472DE9F04790B0064610F1F3
:1005F0000C040FF2BC1AE8464FF010074FF0000051
:1006000003D00125814600940CE005460EE05046DB
:1006100001F0F2FE28B184F80090611C48F8251022
:100620006D1C641C217809B1BD42F0D3009800F024
:10063000AAF838B143686A4629463046984710B050
:10064000BDE8F087B368009A5AA130469847F6E7AC
:1006500010B504460B4660A240210C3002F016FA99
:100660002046BDE81040BEE770B542680446002A47
:1006700022D094F85000C0071ED0B4F84E50601934
:10068000C5F140010C309047B4F84E1000260844E4
:10069000A4F84E000CE06019017B0D2901D00A2955
:1006A00005D106732046FFF79EFFA4F84E606D1C2F
:1006B000B4F84E00A842EEDC70BD0068096800681E
:1006C000096801F0AABE2DE9F04104464348444BB5
:1006D000A0B0022904D000211A1A0C23E84616E023
:1006E000506800F050F838B18168A2682046904701
:1006F000A2683CA120469047002020B0BDE8F081D0
:1007000001EB410500EB850648F82160491C92FB8E
:10071000F3F58D4201DD1029F2DB0F46324B042246
:10072000404601F0F7FDA2682EA120469047002622
:1007300025E058F82600A268454601682046904703
:1007400055F82600006801F061FE05460A2805DA22
:10075000C0F10A0502E025A120469047A2686D1E5F
:10076000F9D223A12046904758F82600A268816854
:1007700020469047A2681BA120469047761CBE42A7
:10078000D7DB0120B9E770B5144C05460C3C144E7C
:1007900004E02846216801F04EFE20B10C34B4423A
:1007A000F7D3002070BD204670BD0000A5050008ED
:1007B000202C0000556E6B6E6F776E20636F6D6D31
:1007C000616E642027257327202D207472792027DD
:1007D00068656C70270D0A0025730000B4380008A6
:1007E000E43800080D0A0000BB06000820000000E5
:1007F0002D2000000CB500205449019000900A689B
:1008000042F480320A604FF4A0630A6802F40032B6
:100810000092019A521C0192009A12B9019A9A42CE
:10082000F3D10A68920334D5012000904748403044
:10083000026842F0805202604548026842F48042F9
:1008400002604248083002680260026842F40042D6
:100850000260026842F4A0520260031F3D4A1A601F
:100860000A6842F080720A600A689201FCD53A4A2E
:1008700040F205611160016821F003010160016827
:1008800041F0020101600168C1F381010229FAD13E
:100890000CBD00900CBD314810B5016841F47001E9
:1008A00001602A48016841F001010160274A0021E6
:1008B0000832116002682A4B1A400260031D294A5F
:1008C0001A60026822F48022026020480C30016025
:1008D000FFF790FF21494FF000608039086010BD9C
:1008E00070B51A4C083420681F4A10F00C011F48DC
:1008F00004D01F4D042903D0082903D002601BE057
:10090000056019E01149091D0B68C3F380560B6897
:1009100003F03F0316B1B5FBF3F201E0B2FBF3F2D3
:100920000B680968C3F388135A43C1F30141491C9A
:100930004900B2FBF1F1016021680C4AC1F30311D7
:10094000121D515C0268CA40026070BD003802404E
:100950000070004099574007003C024088ED00E0DD
:10096000FFFFF6FE103000240024F4000C000020ED
:10097000001BB7002849084328490860704730B574
:100980000F22C47801780123FCB1244C246801F1C2
:10099000E02104F4E064C4F5E064C4F30724C4F186
:1009A0000405E2404478AC408578154025432A018F
:1009B00081F80024007800F01F018B40400980007E
:1009C00000F1E020C0F8003130BD01F01F0083408D
:1009D0004809800000F1E020C0F8803130BD104AA5
:1009E000114001430D48001F016070470B4A121D62
:1009F0000029116801D0014300E081431160704774
:100A00004FF0E0210428086903D020F004000861B9
:100A1000704740F00400FAE70000FA050CED00E032
:100A200080FFFF1F374900200860091D0860091D6D
:100A30000860091D08603349334814310860704765
:100A400030B530498379026853B30B6893430B6028
:100A50000A1D13680468A343136002790A441368EB
:100A6000046823431360274A083213680468A343C9
:100A70001360131D1C680568AC431C604479102C7E
:100A800005D021440A68006802430A6030BD11683D
:100A9000046821431160196800680143196030BD82
:100AA0000079084401689143016030BD0021016074
:100AB00001710C22427181717047124910310A682C
:100AC00002430A60704701460E4A00201432126841
:100AD0000A4200D0012070470A491431086070476B
:100AE000084A014600201268064B0A4014331B686E
:100AF0000B4202D0002A00D0012070470149143176
:100B000008607047003C0140FFFF7F007C4910B542
:100B1000884206D10121084600F058FA0021012040
:100B20004FE07849884206D10121022000F04EFAB8
:100B30000021022045E07449884206D101210420A9
:100B400000F044FA002104203BE07049884206D1BD
:100B50000121082000F03AFA0021082031E06C4918
:100B6000884206D10121102000F030FA0021102027
:100B700027E06849884206D10121202000F026FAAA
:100B8000002120201DE06449884206D10121402037
:100B900000F01CFA0021402013E06049884206D191
:100BA0000121802000F012FA0021802009E05C4938
:100BB00088420AD184150121204600F007FA00215D
:100BC0002046BDE8104000F001BA10BDF0B500238A
:100BD000012403270D6804FA03F21540954242D11F
:100BE000D0F800C05E0007FA06F52CEA050CC0F844
:100BF00000C091F804C0D0F800E00CFA06FC4CEA02
:100C00000E0CC0F800C091F804C0BCF1010F02D076
:100C1000BCF1020F1FD1D0F808C02CEA050CC0F8B7
:100C200008C091F805C0D0F808E00CFA06FC4CEAC0
:100C30000E0CC0F808C0D0F804C02CEA020CC0F8B2
:100C400004C0426891F806C00CFA03FC1FFA8CFC41
:100C500042EA0C024260C268AA43C260CA79C5680F
:100C6000B2402A43C2605B1C102BB3D3F0BD4FF6D9
:100C7000FF7101600021017141718171C171704783
:100C800008B541F480320092C261C1610099C1612E
:100C9000C169C069009008BD0246002012690A427D
:100CA00000D001207047006980B2704702460020E2
:100CB00052690A4200D001207047406980B27047F3
:100CC00001837047418370470AB1018370474183B4
:100CD00070474161704742694A40426170474B0723
:100CE000DB0E9A40C90810B500EB8100016A0F24A1
:100CF0009C40A1430162016A1143016210BD0000E2
:100D0000000002400004024000080240000C0240C3
:100D1000001002400014024000180240001C024073
:100D200000200240EA48016841F001010160E84A00
:100D30000021083211600268E64B1A400260031D70
:100D4000E54A1A60026822F480220260E0480C3012
:100D500001607047DE490022891C0A7008707047E4
:100D600002460020510901290CD002290CD0D84993
:100D70007431096802F01F02012393400B4200D036
:100D800001207047D249F4E7D1497031F1E718B535
:100D900000204FF4A06400903120FFF7E1FF00999C
:100DA000491C0091A14201D00028F5D03120FFF765
:100DB000D7FF002800D0012018BDC5490A6822F0DD
:100DC000F80242EAC00008607047C44908607047F2
:100DD000BF49002270310A700A70012802D004282D
:100DE00001D1052008707047BD490860704741EA8D
:100DF00082115A0810B5BB4B029C03EB024211430F
:100E0000014341EA0460B249091D086010BDB349BD
:100E100008667047800140EA0170AD49843108607E
:100E20007047AE4988667047AC49C8647047A84AA5
:100E300008321368084323F0EC63184310607047CE
:100E4000A34A08321368084323F07843184310601C
:100E500070479F4A0832116821F003010143116075
:100E600070479B480830006800F00C007047984AB3
:100E70000832116821F0F001014311607047944A73
:100E80000832116821F4E051014311607047904924
:100E900008310A6822F4604242EAC00008607047E4
:100EA00070B58B4A083211688F4C11F00C0104D0D8
:100EB0008E4E042903D0082903D004601BE006608D
:100EC00019E08349091D0B68C3F380550B6803F0D3
:100ED0003F0315B1B6FBF3F301E0B4FBF3F30C6889
:100EE0000968C4F388146343C1F30141491C4900F4
:100EF000B3FBF1F1016011680F2303EA11117C4B80
:100F00005C5C0168E14041601468072505EA9424AF
:100F10001C5D21FA04F48460126805EA52329A5C7E
:100F2000D140C16070BDC0F30121032908D1684AD6
:100F30000832116821F4F8136E4901401943116019
:100F4000634970310A68C0F30B0002430A607047BE
:100F50006349443908607047614940390860704707
:100F60005E49C1F85C017047594A30320029116866
:100F700001D0014300E0814311607047544A34328C
:100F80000029116801D0014300E0814311607047DE
:100F90004F4A38320029116801D0014300E08143F3
:100FA000116070474A4A40320029116801D001435C
:100FB00000E0814311607047454A443200291168BE
:100FC00001D0014300E0814311607047404A103274
:100FD0000029116801D0014300E08143116070478E
:100FE0003B4A14320029116801D0014300E08143DB
:100FF00011607047364A18320029116801D0014348
:1010000000E0814311607047314A203200291168A5
:1010100001D0014300E08143116070472C4A243223
:101020000029116801D0014300E08143116070473D
:10103000274A50320029116801D0014300E0814362
:1010400011607047224A54320029116801D00143CF
:1010500000E08143116070471D4A58320029116831
:1010600001D0014300E0814311607047184A6032AB
:101070000029116801D0014300E0814311607047ED
:10108000134A64320029116801D0014300E0814312
:10109000116070470E4A0D320029117801D00143CA
:1010A00000E081431170704709487430016841F0D5
:1010B0008071016070470146054A00200C321268B9
:1010C0000A4200D00120704701490E310870704774
:1010D00000380240FFFFF6FE1030002400004742B7
:1010E000800E47420000FFFF0024F400001BB70001
:1010F00020000020FFFCFF0FFE4910B5884206D1FA
:1011000001210846FFF78AFF002101205BE0B0F1D2
:10111000804F09D0F84988420DD101210220FFF704
:1011200073FF0021022070E001210846FFF76CFFE9
:101130000021012069E0F149884206D10121042003
:10114000FFF762FF002104205FE0ED49884206D1ED
:1011500001210820FFF758FF0021082055E0E94948
:10116000884206D101211020FFF74EFF00211020F8
:101170004BE0E549884206D101212020FFF744FFDA
:101180000021202041E0E149884206D101210220CE
:10119000FFF744FF0021022015E0DD49884202D11B
:1011A00001210C040AE0DB49884202D101214C04F0
:1011B00004E0D94988420AD101218C042046FFF776
:1011C0002DFF00212046BDE81040FFF727BFD3497F
:1011D000884206D101214020FFF716FF0021402060
:1011E00013E0CF49884206D101218020FFF70CFF90
:1011F0000021802009E0CB4988420AD184150121D1
:101200002046FFF701FF00212046BDE81040FFF710
:10121000FBBE10BD30B50288B64BBC4C98420DD019
:10122000A0420BD0B0F1804F08D0B34DA84205D0FA
:10123000B24DA84202D0B24DA84203D122F07005AF
:101240004A882A43AF4DA84206D0AF4DA84203D0EA
:1012500022F440750A892A4302804A68C2620A88D9
:101260000285984201D0A04201D1897A01860121EC
:10127000818230BD4FF0FF3141600021018001814A
:10128000418081727047018582827047028822F016
:1012900070020A430280704741627047C162704722
:1012A000406A7047008D70470029018802D041F0E4
:1012B000020101E021F0020101807047002901884C
:1012C00002D041F0040101E021F0040101807047E7
:1012D0000029018802D041F0800101E021F0800165
:1012E00001807047028822F00802028002880A43C7
:1012F00002807047028822F44072028002880A430A
:10130000028070470029018802D041F0010101E00C
:1013100021F001010180704730B5028C22F00102FA
:101320000284028C8388048B22F0020224F073056D
:101330000C882C438D8915434A882A436D4DA84259
:1013400002D0724DA8420DD122F00805CA8923F4BB
:1013500040732A4322F004058A882A430D8A1D43DC
:101360004B8A2B438380048389684163028430BDA8
:1013700070B5028C22F010020284028C8488038BE8
:101380000D8823F4E6464FF6FF7303EA052535433F
:101390008E8922F0200203EA061616434A8803EAE1
:1013A00002123243534EB04202D0584EB04215D1D1
:1013B00022F08006CA8924F4406403EA0212324310
:1013C00022F040068A8803EA021232430E8A03EAB8
:1013D000860626434C8A03EA8404344384800583CA
:1013E00089688163028470BD70B5028C22F48072BA
:1013F0000284028C8488838B0D8823F073031D4341
:1014000022F400738E894FF6FF7202EA06261E430D
:101410004B8802EA03233343364EB04202D03B4EA0
:10142000B04215D123F40066CB8924F4405402EA7B
:101430000323334323F480668B8802EA0323334378
:101440000E8A02EA061626434C8A02EA0414344342
:10145000848085838968C163038470BD70B5028C04
:1014600022F480520284048C8288838B0D8823F4BA
:10147000E6464FF6FF7303EA0525354324F400568C
:101480008C8903EA043434434E8803EA0636264343
:10149000184CA04202D01D4CA04205D122F4804439
:1014A0000A8A03EA82122243828085838968016462
:1014B000068470BD0021018041808180816081812E
:1014C000C18101824182704730B50124058C00F151
:1014D00018038C40A543058431B308292CD0091F7B
:1014E000C1F34E001844016848F6FF7319400160CB
:1014F00001681AE0000001400004004000080040BC
:10150000000C0040001000400014004000040140A6
:1015100000400140004401400048014000180040E4
:10152000001C00400020004006E04FF6FF7303EA75
:1015300002221143016030BD03EB510001684FF6F8
:101540008F73194001600168F3E74163704781635D
:101550007047C163704701647047028B22F07002CC
:101560000A4302837047028B4FF6FF7322F4E04276
:1015700003EA0121114301837047828B22F070023C
:101580000A4382837047828B4FF6FF7322F4E04256
:1015900003EA0121114381837047028B22F0080284
:1015A0000A4302837047028B4FF6FF7322F40062F6
:1015B00003EA0121114301837047828B22F0080264
:1015C0000A4382837047828B4FF6FF7322F40062D6
:1015D00003EA0121114381837047028B22F0040248
:1015E0000A4302837047028B4FF6FF7322F4806236
:1015F00003EA0121114301837047828B22F0040228
:101600000A4382837047828B4FF6FF7322F4806215
:1016100003EA0121114381837047028B22F080028B
:101620000A4302837047028B4FF6FF73C2F30E0228
:1016300003EA0121114301837047828B22F080026B
:101640000A4382837047828B4FF6FF73C2F30E0208
:1016500003EA0121114381837047028C22F00202C8
:101660000A4302847047028C22F008020A43028473
:101670007047028C4FF6FF7322F0200203EA01113B
:10168000114301847047028C4FF6FF7322F08002F1
:1016900003EA0111114301847047028C4FF6FF7376
:1016A00022F4007203EA0121114301847047028C85
:1016B0004FF6FF7322F4006203EA01211143018413
:1016C0007047028C4FF6FF7322F4005203EA013197
:1016D00011430184704710B50123048C8B409C4357
:1016E0000484038C8A401343038410BD10B5042383
:1016F000048C8B409C430484038C8A4013430384F2
:1017000010BD828B22F440628283828B4FF6FF737E
:1017100003EA01210A4382837047828B22F00C0284
:101720008283828B0A4382837047028B22F4406259
:101730000283028B4FF6FF7303EA01210A430283FF
:101740007047F0B5048C24F010040484078B068CD9
:101750004FF6FF7404EA011527F4734704EA0331D6
:10176000394304EA02220A4326F0A001294341F04A
:10177000100102830184F0BD028B22F00C0202836F
:10178000028B0A43028370472DE9F0410D460E8813
:101790004988AA882B8904460EB3042E26D0082E29
:1017A000268C4FF6FF7028D026F480562684A78B0F
:1017B000268C00EA022200EA013127F473473A43FB
:1017C00000EA0330104326F420420A4342F48051D9
:1017D000A0832184E9882046BDE8F04191E700F02C
:1017E00062F9E9882046BDE8F041C5E7FFF7A9FFA7
:1017F000E9882046BDE8F04197E726F48076268404
:10180000A78B268C00EA012100EA0310104327F081
:10181000F307384326F420620A4342F48071A08320
:101820002184E9882046BDE8F04176E70021018067
:10183000418001228280C180018170472DE9F04101
:101840000C46002649880746012501B90226A288D0
:10185000012A00D10225208823890028384610D08B
:10186000FFF76FFFE1883846FFF75FFF23892A46BD
:101870003146384600F017F9E1883846BDE8F041B6
:101880007AE700F010F9E1883846FFF775FF238901
:101890002A4631463846FFF754FFE1883846BDE80E
:1018A000F04142E7406B7047806B7047C06B7047F8
:1018B000006C704710B50A884B88CC881A438B8817
:1018C00023431A430B891A434B8989891A430A43D4
:1018D000A0F8442010BD0021018041808180C1809A
:1018E0000181418181817047002930F8441F02D075
:1018F00041F4004101E0C1F30E010180704700296D
:10190000818802D041F0040101E021F004018180CE
:1019100070470029818802D041F0010101E021F0E7
:10192000010181807047002A828901D00A4300E0CA
:101930008A43828170478182704702460020128A62
:101940000A4200D001207047C94301827047024615
:101950000020138A92890B4202EA010202D0002A77
:1019600000D001207047C943018270471143A0F89D
:1019700048107047002A828901D00A4300E08A4358
:10198000828170470029818802D041F0080101E07E
:1019900021F0080181807047018921F00701018150
:1019A0007047028922F070020A430281704700B535
:1019B0000346FFF7F6FF188940F00700188100BDC5
:1019C00070B516460D46602904464FF001023146B7
:1019D0000AD000F068F829462046FFF7E2FF208988
:1019E00040F00700208170BDFFF7ABFEF3E730B594
:1019F00004894FF6FF7505EA03231343E4B20B4352
:101A00002343038130BD10B50446FFF7F0FF208962
:101A100040F07700208110BD10B50446FFF7E7FFC6
:101A2000208940F48040208110BD828822F070021D
:101A3000828082880A4382807047028922F00702EE
:101A4000028102890A4302817047028922F08002E2
:101A5000028102890A430281704770B50589048BAF
:101A6000068C25F007050D434FF6FC410C4040F273
:101A700001110C434FF6FF7101EA031126F0220613
:101A80001143314305810483018470BD002981889D
:101A900002D041F0800101E021F080018180704797
:101AA000A0F85010704770B5048C24F00104048431
:101AB000058B048C4FF6FF7606EA0313134325F0DB
:101AC000F3052B4324F00A020A4342F00101038389
:101AD000018470BDC74910B5884206D1012110208C
:101AE000FFF79CFA0021102028E0C349884202D168
:101AF00001214C0410E0C149884202D101218C042B
:101B00000AE0BF49884202D10121CC0404E0BD496A
:101B100088420AD101210C052046FFF775FA2046BC
:101B2000BDE810400021FFF76FBAB749884209D1DC
:101B300001212020FFF772FA00212020BDE810408B
:101B4000FFF76CBA10BD7FB50446008A0D4620F43D
:101B50004051E88808432082A08941F20C61884303
:101B6000A9882A8911436A8902431143A181A08A65
:101B700020F44071A8890843A0826846FFF790F9D5
:101B80009C48844202D0A048844201D1039800E0DE
:101B90000298A189090400EBC00101EB001029683B
:101BA00001D5490000E08900B0FBF1F26420B2FBEE
:101BB000F0F109010B096FF018056B4302EB83028A
:101BC000A3891D044FF0320306D503EBC202B2FB1A
:101BD000F0F000F0070005E003EB0212B2FBF0F0BA
:101BE00000F00F00084320817FBD4FF416510160C3
:101BF00000218180C18001810C2242818181704756
:101C000010B5028A4C8822F470630A8822438C88BB
:101C1000C9880C4322431A43028210BD002101806F
:101C200041808180C18070470029818902D041F4C0
:101C3000005101E021F4005181817047028B02F4D0
:101C40007F420283028B0A43028370470029818905
:101C500002D041F4004101E0C1F30E0181817047DF
:101C60000029818A02D041F4006101E021F4006181
:101C700081827047C1F30801818070478088C0F37A
:101C800008007047028A22F00F020282028A0A4389
:101C9000028270470029818902D041F0020101E0EF
:101CA00021F0020181817047828922F400628281E1
:101CB00082890A4382817047028A22F020020282CE
:101CC000028A0A43028270470029018A02D041F445
:101CD000804101E021F4804101827047818941F017
:101CE0000101818170470029818A02D041F00801F9
:101CF00001E021F0080181827047028BD2B2028399
:101D0000028B42EA0121018370470029818A02D0B7
:101D100041F0200101E021F020018182704700297B
:101D2000818A02D041F0100101E021F0100181828E
:101D30007047828A22F004028282828A0A43828267
:101D400070470029818A02D041F0020101E021F0B0
:101D5000020181827047002A828A01D00A4300E092
:101D60008A438282704710B5C1F3421301F01F0409
:101D70000121A140012B07D0022B07D01430002AEB
:101D8000026805D00A4304E00C30F8E71030F6E7AB
:101D90008A43026010BD0246002012880A4200D029
:101DA00001207047C9430180704730B501F01F0220
:101DB00001240025C1F3421304FA02F2012B0FD0D3
:101DC000022B0FD0838A4FEA11210088134204FAB4
:101DD00001F400EA040001D000B10125284630BD1D
:101DE0008389F0E7038AEEE70A0A01219140C9439B
:101DF000018070470010014000440040004800404E
:101E0000004C004000500040001401403A490028B6
:101E1000086802D040F0100001E020F010000860D7
:101E2000704735490028086802D040F0200001E0E2
:101E300020F020000860704730490028086802D070
:101E400040F0400001E020F040000860704730B4EE
:101E50000C0013464FF000010A460ED0012C04D0AE
:101E6000022C04D0032C08D104E0012105E06421F8
:101E70000A4602E04FF4FA714A00214C00EB800060
:101E800004EB800030BCFEF756BA10B501210220E9
:101E9000FFF76AF8194C1023143C00220121204658
:101EA00000F08EF8202300220121204600F088F85F
:101EB000402300220121204600F082F811491048F9
:101EC000FEF722FA0E4810491430FEF71DFA0C48AE
:101ED0000E492830FEF718FA032202210020FFF7EE
:101EE000B6FF032202210120FFF7B1FF03220221E6
:101EF000BDE810400846AAE7140802401404024056
:101F0000600500200D1E0008231E0008391E000871
:101F1000FEF7C6FAFEF7CEFAFCE700000A20FEF74D
:101F2000ADBA13B5244C0121684662689047206918
:101F300080470028FBD0E06880470028FBD100984C
:101F40001CBD70B54FF4A060FEF714FD1A4801687F
:101F50004FF4E1308847FEF7C3FC184864214FF086
:101F6000FF350068B0FBF1F1B1F1807F0DD221F0B7
:101F70007F404FF0E024401E60610F21284600F0B2
:101F80000AF80020A061072020612846BDE87040C3
:101F90000021AFF300800907090E002806DA00F0DF
:101FA0000F0000F1E02080F8141D704700F1E020E0
:101FB00080F8001470470000B43300080C000020C3
:101FC0001CB58DF8041000218DF8061002218DF843
:101FD000051000938DF807206946FEF7F7FD1CBD3C
:101FE00008B5002300938DF800008DF801108DF8DE
:101FF000022001208DF803006846FEF7C0FC08BDF2
:102000001CB504460020CDE900408DF804008DF891
:1020100005108DF806206846FEF712FD2046FEF7F3
:102020006DFD1CBD70B500252DED028B88B00E46F0
:102030000446009501950295FFF75EF803A8FEF7A8
:102040002FFF0120ADF800002B489FED2C8B844220
:102050000BD02C48844208D02B48844205D02B4812
:10206000844202D02A48844201D1069800E00598B3
:10207000B0FBF6F000F09BFA53EC182B00F0F0F9EF
:1020800000F0A2FA00EE100AADF80850ADF80250C8
:10209000BCEEC00A694610EE100A401E01902046B0
:1020A000FFF7B8F808B0BDEC028B70BD7FB50C46E9
:1020B0000546FFF70FFD0021ADF80810ADF804103C
:1020C0000C20ADF80610ADF80C10ADF80A00009425
:1020D00069462846FFF737FD012240F22551284680
:1020E000FFF741FE012260212846FFF73CFE012157
:1020F0002846FFF799FD7FBD000001400000000069
:102100000000E03F00040140004001400044014065
:10211000004801407047FEE7FEE7FEE7FEE7704734
:10212000704770471CB50A4841680091806801906B
:1021300069460848FEF748FA0648FEF74EFA06A137
:102140000448FEF785FA1CBD0248FEF78DBA000070
:10215000B43300089C050020737973696E666F00C4
:1021600010B510211348FEF797FD08B1002010BDEF
:10217000012010BD40B1012809D002280AD1002257
:1021800011460120FFF763BE03220221F9E7002276
:102190000121F6E7704710B5102301220021054800
:1021A000FFF70EFFBDE81040034A04490448FEF75C
:1021B0000DB90000000802407521000861210008E7
:1021C000F005002010B5274800F050FC264800F02C
:1021D0004DFC264800F04AFC254800F047FC254805
:1021E00000F044FC244800F041FC244800F03EFC90
:1021F000234800F03BFC234800F038FC224800F064
:1022000035FC1D4800F032FC204800F02FFC20482F
:1022100000F02CFC1F4800F029FC1F4800F026FCB1
:102220001E4800F023FC1E4800F020FC1DA220A147
:1022300022A000F01BFC26A127A000F017FC2C48D0
:1022400001682CA000F012FC012010BDBFF34F8FDD
:102250002E4801682E4A01F4E06111430160BFF38A
:102260004F8FFEE7C437000894340008503400084C
:10227000D8340008E83500082C360008B4360008C9
:102280008037000870360008F83600083C37000830
:10229000A4350008603500081C3500080C3400081F
:1022A000C833000830303A31373A35310000000089
:1022B0004A616E2031322032303235004275696C0D
:1022C0006420696E2025732025730D0A000000002C
:1022D000312E303000000000536F667477617265F4
:1022E0002076657273696F6E3A2025730D0A0000BF
:1022F0000C00002053797374656D20636C6F636B01
:102300003A20256420687A0D0A0000000CED00E0F8
:102310000400FA052DE9FE4399461546884607460E
:1023200001AC022942D3002D40D000200290A8F138
:1023300001004FF0FF36009022E000FB057201FB28
:10234000057011464A469047002805DC54F82600DF
:10235000304444F8260013E060682A4600FB05710B
:1023600054F8040C00FB057007E00B7890F800C0EF
:1023700001F801CB00F8013B521E002AF5D176424C
:1023800054F8040C61688842D7DC4B462A4638462C
:10239000FFF7C0FF54F8040C4B46A8EB0001401CAB
:1023A00000FB05702A46491EFFF7B4FFBDE8FE8317
:1023B00040EA01039B0703D009E008C9121F08C0C7
:1023C000042AFAD203E011F8013B00F8013B521E47
:1023D000F9D27047D2B201E000F8012B491EFBD2BE
:1023E00070470022F6E710B513460A460446194620
:1023F000FFF7F0FF204610BDCAB2401E10F8011FC3
:102400008A4202D00029F9D100207047421C10F8FE
:10241000011B0029FBD1801A704710B5002200E093
:10242000521C835C8C5CA34201D1002BF8D1D8B242
:10243000E1B2401A10BD2DE9F0410E4605460024D8
:1024400000E0641C285D00F043F90746305D00F0B1
:102450003FF9381A02D1295D0029F2D1BDE8F08197
:102460002DE9FE4F804681EA0300C00F0C46009024
:1024700021F0004123F00045B8EB0200A94105D24C
:102480004046214690461C460B46024623F000403B
:10249000104347D0270DC7F30A00C3F30A51029037
:1024A000401A019040286BDAC3F3130040F4801BFC
:1024B0000098924620B10023D2EB030A63EB0B0B8A
:1024C00001985946C0F14002504600F0E0F8064637
:1024D0000D4650465946019A00F0E8F810EB080006
:1024E0006141002487EA115284EAE7731A4340D01D
:1024F000009A62B3019A012A4FEA075215DC001BC9
:1025000061EB02014FF0004202EA0752CDE90042BE
:10251000001C41F5801132462B4600F025F903B02E
:10252000BDE8F08F40462146F9E7001B61EB020150
:10253000001C41F5801300185B412018A2F500171C
:1025400047EB030140EAD570B6196D4111E06D0803
:102550004FEA360645EAC0754FEA0752001B61EBA9
:102560000201001C41F5801149084FEA30000019B2
:10257000514132462B4603B0BDE8F04F00F0E5B8BC
:102580000098012240000023D0EB020263EBE073CD
:10259000009821464FEAE074B8EB000061EB0401BB
:1025A000E9E783F000435BE781F0004158E70EB5AF
:1025B00040F2334102910021CDE900110A460B4659
:1025C00000F0D2F803B000BD01F0004330B421F0B8
:1025D000004150EA010206D00A0DA2F56072C1F373
:1025E0001301002A02DC30BC00207047440F44EA8B
:1025F000C104C100E01830BC00EBC25000F06EB85E
:1026000030B50B46014600202022012409E021FAC2
:1026100002F59D4205D303FA02F5491B04FA02F5BF
:102620002844151EA2F10102F1DC30BD2DE9F05F56
:102630000546002092469B46884606468146402431
:102640001BE0284641464746224600F0FFF9534624
:102650005A46C01A914110D311461846224600F03E
:1026600016F82D1A67EB01084F462246012000217B
:1026700000F00DF817EB00094E41201EA4F10104F3
:10268000DFDC484631462A464346BDE8F09F202A13
:1026900004DB203A00FA02F1002070479140C2F1B9
:1026A000200320FA03F3194390407047202A06DBE9
:1026B000CB17203A41FA02F043EAE07306E041FA10
:1026C00002F3D040C2F120029140084319467047FE
:1026D000A0F14101192900D8203070470029A8BF76
:1026E0007047401C490008BF20F00100704710B43B
:1026F000B0FA80FC00FA0CF050EA010404BF10BCF0
:10270000704749B1CCF1200421FA04F411FA0CF11C
:1027100018BF012121430843A3EB0C01CB1D4FEA55
:1027200000614FEA102042BF002010BC704700EB50
:10273000C35010440029A4BF10BC7047401C49007E
:1027400008BF20F0010010BC704710B5141E73F1D3
:10275000000408DA401C41F1000192185B411A4361
:1027600001D120F0010010BD2DE9F04D92469B46AD
:1027700011B1B1FA81F202E0B0FA80F22032904653
:10278000FFF785FF04460F4640EA0A0041EA0B01C5
:1027900053465A46084313D0114653EA010019D054
:1027A000C8F14002504600F051F905460E46504629
:1027B00059464246FFF76BFF084305D0012004E06D
:1027C00020463946BDE8F08D0020054346EAE07614
:1027D0002C4337430A986305E40AA0EB0800002263
:1027E000FD0A44EA47540A3002D500200146E9E7D1
:1027F000010510196941DDE9084500196941BDE885
:10280000F04DA2E72DE9FE4F81EA030404F00044F5
:1028100021F0004100944FF0000B23F0004350EAF8
:1028200001045ED052EA03045BD0C3F30A54C1F33F
:102830000A552C44A4F2F3340194A0FB0254C1F3D2
:10284000130141F48011C3F3130343F4801301FB1C
:10285000024400FB034E840A970A44EA815447EA83
:102860008357A4FB076802958D0A05FB07854FEA8D
:10287000932C04FB0C542705029D4FEA065847EAA7
:102880001637B5EB08056EEB070C870E920E47EA7C
:10289000811742EA8312A7FB0201B6EB0B0164EB3E
:1028A00000042B0D43EA0C335E1844EB1C50DA464F
:1028B0005146E7FB0201C5F313044FEA0B3343EA29
:1028C00014534FEA0432019C43EA0603A4F10C04BA
:1028D0000294009CCDE900B4FFF746FF03B0BDE8C9
:1028E000F08F00200146F9E72DE9F04D81EA03045D
:1028F00004F0004B21F0004514464FF0000A23F08D
:10290000004150EA050220D054EA01021DD0C5F36F
:102910000A570246C5F31303C1F31300C1F30A5665
:1029200040F4801543F48013A7EB0608101BD6462D
:1029300008F2FD3873EB050002D308F1010801E04D
:1029400092185B41B8F1000F03DA00200146BDE8A0
:10295000F08D00204FF48011064684460EE0171BD0
:1029600073EB050705D3121B63EB050306434CEA23
:10297000010C49084FEA300092185B4150EA010708
:10298000EDD152EA030012D082EA040083EA050185
:10299000084305D0101BAB4106D20122002306E0FC
:1029A00000224FF0004302E06FF0010253101AEBD7
:1029B00006004CEB085110EB0A0041EB0B01BDE89F
:1029C000F04DFFF7C2BEC1F30A52C1F3130140F24A
:1029D000FF3341F480119A4202DA00200146704729
:1029E00040F233439A42A2F2334202DC524200F0F8
:1029F0002DB8FFF74CBE000030B5041E71F1000485
:102A000004DB4FF00044404264EB0101141E73F1FB
:102A1000000405DB1C464FF00043524263EB040305
:102A2000994208BF904230BD064C074D06E0E06871
:102A300040F0010394E8070098471034AC42F6D305
:102A4000FDF7A6FB88380008A8380008202A04DB18
:102A5000203A21FA02F00021704721FA02F3D04017
:102A6000C2F1200291400843194670470FB4054B4C
:102A700010B503A9044A029800F00EF910BC5DF8E5
:102A800014FB0000231F00083C0000200FB47CB59D
:102A90000C0009AD01D0611E00E00021CDE900016C
:102AA000064B6A462946089800F0F6F8002C02D03A
:102AB000009A002111707CBC5DF814FB9F33000864
:102AC0007CB50C001D461646014601D0601E00E094
:102AD0000020CDE90010064B6A462946304600F03A
:102AE000DBF8002C02D0009A002111707CBD0000A0
:102AF0009F33000802E008C8121F08C1002AFAD15B
:102B000070477047002001E001C1121F002AFBD16D
:102B1000704700002DE9FF5F82B00021DDE904303D
:102B2000020DDDF840B0034318D044F61050A2F275
:102B3000FF3242431514119801281FD0A5EB0B005A
:102B4000401C5FEA000A4FF000064E4FDFF8389154
:102B5000B046504615D5CAF1000413E0119801247F
:102B60004AA3012801D16FEA0B010298119AC0E92A
:102B70000031C0E9024206B0BDE8F09FCBF1000091
:102B8000DFE704460021404A491842EB0450CDE9F2
:102B9000001012E0E00707D032463B464046494667
:102BA000FFF730FE8046894632463B4610461946BE
:102BB000FFF728FE06460F466410002CEAD1DDE937
:102BC0000401DDE90023BAF1000F06DAFFF71AFE6F
:102BD00042464B46FFF716FE05E0FFF785FE4246EC
:102BE0004B46FFF781FE04460E460022284BFFF7B6
:102BF00003FF03D84FF0FF30014607E00022254BCA
:102C000020463146FFF72CFCFFF7DDFE102409E0DB
:102C1000002C0ADB0A220023FFF708FD039B303259
:102C20001A55641E50EA0102F2D1641C039AC4F1E1
:102C300011031444119A012A03D0012208430DD133
:102C40000AE0084304D000204FF0110B119072E706
:102C5000A3EB0B056D1E0DE05B4504DD4FF000029C
:102C600005F1010504E003DA4FF00002A5F10105CA
:102C7000002AECD002981199C0E90231C0E9004560
:102C800079E70000000014400000F03F3000000031
:102C90000000F0430000E03F2DE9FF4F95B09A4659
:102CA000884606460025EEE1252877D100242746F0
:102CB000F94A0121039400E0044316F8013F203B48
:102CC00001FA03F01042F7D130782A2811D06FF0C2
:102CD0002F033078A0F13002092A16D8039A44F065
:102CE000020402EB820203EB42021044761C0390C2
:102CF000EFE758F8042B0392002A03DA504244F419
:102D00000054039044F00204761C30782E2816D12B
:102D100016F8010F44F004042A280DD06FF02F029A
:102D20003078A0F13003092B09D807EB870302EBB9
:102D30004303C718761CF3E758F8047B761C3078F9
:102D40006C280FD006DC4C2817D068280DD06A28D4
:102D500014D104E0742810D07A280FD10DE044F487
:102D600000140AE044F4801401E044F44014727842
:102D7000824202D104F58014761C761C30786628D5
:102D80000BD013DC582877D009DC002875D04528F3
:102D9000F6D04628F4D047281AD193E118E06328EA
:102DA00035D0642879D0652812D18BE1702873D092
:102DB00008DC6728F1D069286FD06E280DD06F2805
:102DC00006D1ACE073282CD0752874D0782853D065
:102DD0005246179990476D1C54E1C4F302500228E3
:102DE00009D003280DD0D8F8001004280DD00D60AC
:102DF00008F1040846E1D8F80010EA17C1E90052CA
:102E0000F6E7D8F800100D80F2E70D70F0E718F83B
:102E1000041B8DF8001000208DF80100EB46012006
:102E200003E058F804BB4FF0FF3061074FF000019A
:102E300002D40DE009F101018946B9420FDA81455A
:102E4000F8DB1BF809100029F4D108E009F10101B1
:102E500089468142FADB1BF809100029F6D1039854
:102E60005346A0EB090721463846179A00F080FA2E
:102E7000284400EB090507E044E008E10DE01BF8F9
:102E8000010B524617999047B9F10109F7D2534601
:102E900021463846179AF2E039E00A21C4F302527B
:102EA0004FF0000B0091022A06D058F8040BC1170E
:102EB000032A09D00AE023E008F1070020F0070206
:102EC000F2E80201904605E000B2C117042A01D1E0
:102ED00040B2C117002906DA0A460021404261EBE0
:102EE00002012D2202E0220504D52B228DF80420B8
:102EF000012203E0E20701D02022F7E7914657E0E4
:102F00000A2100E010214FF0000B00910BE010218E
:102F10004FF0000B44F004040827009103E0082060
:102F20004FF0000B0090C4F30252022A05D058F86B
:102F3000040B0021032A08D008E008F1070020F064
:102F40000702F2E80201904603E080B2042A00D1B1
:102F5000C0B24FF0000922072AD53278702A07D074
:102F6000DDF800C08CF0100C5CEA0B0C05D00EE014
:102F700040228DF80420012208E050EA010306D027
:102F800030238DF804308DF8052002229146009BF5
:102F900083F0080353EA0B030AD150EA010201D17E
:102FA000620705D530228DF804204FF001097F1EFD
:102FB0003278582A04D039A20C920CAA02920BE063
:102FC0003BA2F9E75B46009AFFF730FB0C9B9B5C4A
:102FD000029A521E0292137050EA0102F2D1029834
:102FE00004A9081A00F1200B600702D524F48034EC
:102FF00000E001275F4502DDA7EB0B0000E00020A9
:1030000000EB0B01009003984944401A0390E00341
:1030100006D453462146179A039800F0A9F90544AF
:10302000002706E001A85246C05D179990476D1C25
:103030007F1C4F45F6DBE0030CD553462146179A1B
:10304000039800F095F9054404E0302052461799A2
:1030500090476D1C0099481E00900029F5DC08E09F
:103060000298029952460078491C0291179990479C
:103070006D1CBBF10001ABF1010BF1DC5BE100F079
:1030800065F90544761C307800287FF40DAE19B040
:103090002846BDE8F08F00000928010030313233A6
:1030A0003435363738396162636465660000000084
:1030B000303132333435363738394142434445466E
:1030C00000000000600700D4062708F1070020F088
:1030D0000700F0E80223804603F0004C5FEA0C0092
:1030E00001D097A009E0200501D596A005E0E007F2
:1030F00001D095A001E0AFF24C001390307823F09E
:10310000004365280CD006DC452809D046281DD090
:1031100047287FD13BE0662818D067287AD136E06F
:103120000021112F01DB112000E0781CCDE9000106
:1031300004A90CA8FFF7EEFCDDE90D010C9A4FF095
:10314000000B07F10109109200914EE04FF0004092
:103150000097CDE9011004A90CA8FFF7DBFCDDE91D
:103160000D020C9B0F994FF0000B914610930092AB
:1031700011B9791C00EB0109B7EB090003D4C0F1C8
:10318000FF3B07F10109A9EB0700019042E0012F85
:1031900000DA01270021112F01DD112000E038465F
:1031A000CDE9000104A90CA8FFF7B4FCDDE90D018D
:1031B0000C9A00914FF0000BB946109221070FD4E2
:1031C000009A4A4503DA914601E0A9F10109B9F1F3
:1031D000010F05DD109AA9F10101515C3029F4D0ED
:1031E000B84202DA10F1040F03DA0121CDE901102F
:1031F00010E0002803DC8344A9EB000102E0411C3D
:10320000494500DD8946A0EB0B00401C01904FF0C2
:1032100000400290200705D40198484502DB4FF09A
:10322000FF30019000208DF84B0002980DF14B0704
:10323000B0F1004F25D002200C902B200D90029869
:1032400000280CDA404202902D200D9007E00A2160
:103250000298FFF7D5F93031029007F8011D0C995B
:10326000481E0C900029F2DC02980028EFD1791E4C
:103270000D980870307800F0200040F0450007F805
:10328000020D11A8C01BC01D02901398007800B158
:10329000012000EB0901019801EBE0710298014463
:1032A0000398401A401E0390E00306D4534621467B
:1032B000179A039800F05CF805441398007818B149
:1032C0005246179990476D1CE00323D5534621467B
:1032D000179A039800F04CF805441BE0BBF1000F6F
:1032E00007DB0098584504DD1098179910F80B007B
:1032F00001E0179930205246904701980BF1010BDD
:10330000401E05F10105019004D12E205246179967
:1033100090476D1CB9F10001A9F10109DEDC05E05F
:1033200017F8010B5246179990476D1C0299481ED9
:1033300002900029F4DC53462146179A03989EE632
:103340002D0000002B000000200000002DE9F041BE
:10335000044600251E461746880404D405E0394675
:103360002020B0476D1C641EF9D52846BDE8F081C9
:103370002DE9F041044600251E469046C80301D5BC
:10338000302700E02027880404D505E04146384670
:10339000B0476D1C641EF9D52846BDE8F0814A6827
:1033A000002A06D00A68531C0B6010704868401E43
:1033B00048607047C50100082F0200084D02000850
:1033C000590200086F0200087C2A2A2A2A2A2A2A7F
:1033D0002A2A2A2A2A2A2A2A2A2A2A2A2A2A2A2A4D
:1033E0002A2A2A2A2A2A2A2A2A2A2A2A2A2A2A2A3D
:1033F0002A2A2A2A2A2A2A2A2A2A2A2A2A2A2A2A2D
:103400002A2A2A2A2A2A7C0D0A0D0A007C2020203A
:1034100020202020202020202020202020202020AC
:103420002020202020202020205C5F292020202018
:10343000202020202020202020202020202020208C
:10344000202020202020202020207C0D0A000000A9
:103450007C20202020202020202020202020202010
:10346000202020202020202020202020205C2D2013
:103470002D202D2F20202020202020202020202023
:1034800020202020202020202020202020207C0DF3
:103490000A0000007C202020202020202020202046
:1034A000202020202020202020202020202020201C
:1034B000205C5C5C7C2F2F2F2020202020202020CF
:1034C00020202020202020202020202020202020FC
:1034D00020207C0D0A0000007C20202020202020BD
:1034E00020202020202020202020202020202020DC
:1034F000202020202820204020402020292020207B
:1035000020202020202020202020202020202020BB
:103510002020202020207C0D0A0000007C2020207C
:10352000202020202020202020202020202020209B
:1035300020202020202020205C2028202020285F00
:103540002F2020202020202020202020202020206C
:10355000202020202020202020207C0D0A00000098
:103560007C202020202020202020202020202020FF
:10357000202020202020202020202028202020293A
:1035800020202029202F2020202020202020202023
:1035900020202020202020202020202020207C0DE2
:1035A0000A0000007C20202B2D2D2D2D2D2D2D2DC2
:1035B0002D2D2D2D2D2D2D2D2D2D2D2D2D2D206F06
:1035C0006F6F4F2D2D2D28202020292D2D2D2D2DB5
:1035D0002D2D2D2D2D2D2D2D2D2D2D2D2D2D2D2D1B
:1035E0002B207C0D0A0000007C20202B2D2D2D2D62
:1035F0002D2D2D2D2D2D2D2D2D2D2D2D2D2D2D2DFB
:103600002D2D6F30306F2D285F292D6F30306F2DAD
:103610002D2D2D2D2D2D2D2D2D2D2D2D2D2D2D2DDA
:103620002D2D2D2D2B207C0D0A0000007C20207CD0
:10363000202020202020202020202020202020208A
:10364000202020202020202020202020202020207A
:10365000202020202020202020202020202020206A
:1036600020202020202020207C207C0D0A0000002B
:103670007C20207C20417574686F722020202020DF
:10368000203A20204D6F72726F20202020202020B1
:10369000202020202020202020202020202020202A
:1036A0002020202020202020202020207C207C0D75
:1036B0000A0000007C20207C2050726F6A656374D1
:1036C000204E616D65203A202020202020202043BC
:1036D0004F4445425249434B2020202020202020A7
:1036E00020202020202020202020202020202020DA
:1036F0007C207C0D0A0000007C20207C20436F6E23
:103700007461637420202020203A20203C6D6F7269
:10371000726F5F6C756F403136332E636F6D3E2074
:103720002020202020202020202020202020202099
:10373000202020207C207C0D0A0000007C20207CA2
:103740002020202020202020202020202020202079
:103750002020202020202020202020202020204F3A
:103760006F6F6F202020202020202020202020206C
:1037700020202020202020207C207C0D0A0000001A
:103780007C20207C2D2D2D2D2D2D2D2D2D2D2D2DE5
:103790002D2D2D2D2D2D2D2D2D2D2D2D2D2D2D2D59
:1037A0002D2D2D2D2D2D2D2D2D2D2D2D2D2D2D2D49
:1037B0002D2D2D2D2D2D2D2D2D2D2D2D7C207C0DC8
:1037C0000A0000007C2A2A2A2A2A2A2A2A2A2A2AA5
:1037D0002A2A2A2A2A2A2A2A2A2A2A2A2A2A2A2A49
:1037E0002A2A2A2A2A2A2A2A2A2A2A2A2A2A2A2A39
:1037F0002A2A2A2A2A2A2A2A2A2A2A2A2A2A2A2A29
:103800002A2A7C0D0A0000000000000068656C7028
:10381000000000006C69737420616C6C20636F6D34
:103820006D616E642E0000003F000000616C6961F4
:103830007320666F72202768656C70270000000097
:103840006C65640062737000636C69006B6579007D
:10385000737973696E666F0073686F77207379731D
:1038600074656D20696E666F6D6174696F6E2E0090
:1038700072657365740000007265736574207379F6
:103880007374656D000000007039000800000020AE
:1038900040000000F42A0008B03900084000002071
:1038A000C0090000042B0008000000000000000018
:1038B000000000000C380008C70600081438000893
:1038C00028380008C70600082C38000850380008BF
:1038D000C521000858380008703800084D2200083B
:1038E0007838000800000000000000000000000020
:1038F000083800089F04000844380008431F0008E7
:10390000403800088B1E00084C380008972100083A
:103910004838000825210008083800089F040008DE
:10392000083800089F0400080000000000000000A4
:10393000403800085D0300080A0000003000002045
:1039400048380008492100080A000000340000201F
:103950004C380008FB030008140000003800002069
:10396000083800089F040008000000000000000064
:10397000000000000000000000000000007A030AC0
:10398000000000000000000001020304060708090F
:1039900000000000010203040102030406070809F5
:1039A0000000000000000000000000000000000017
:040000050800018965
:00000001FF
