:020000040000FA
:1000000008020020D9000000F30000009301000066
:1000100000000000000000000000000000000000E0
:10002000000000000000000000000000F7000000D9
:100030000000000000000000F90000002F02000096
:10004000EF010000F7010000FF0100000B020000BB
:100050007F0100002D0400004D0400005904000041
:10006000C7010000CF0100001F02000027020000AE
:10007000A3010000AB010000150400001D040000F6
:1000800025040000BB010000350400003D04000011
:1000900045040000DF0100007904000017020000A1
:1000A0006B010000E7010000650400006D04000022
:1000B000D7010000B30100008701000077010000B4
:1000C0000448854600F038F8004800475D0100000C
:1000D000C046C0460802002009480A4A002100A183
:1000E000814200D902440848026008488047084815
:1000F0000047FEE7FEE7FEE7FEE7FEE7FEE700005B
:10010000000000200000000008ED00E0D503000022
:10011000C100000003460B439B0703D009E008C958
:10012000121F08C0042AFAD203E00B780370401CA7
:10013000491C521EF9D27047064C0125064E05E0B7
:10014000E36807CC2B430C3C98471034B442F7D3F8
:10015000FFF7BAFF200500004005000010B500F0D1
:1001600039F900F0CEF9002010BD10B5C046C046E8
:10017000C046C04610BD10B5C046C04610BD10B543
:10018000C046C04610BD10B5C046C046C046C046B9
:1001900010BD08B50020009000BF00980028FCD0DA
:1001A00008BD10B5C046C04610BD10B5C046C0461B
:1001B00010BD10B5C046C04610BD10B5C046C04603
:1001C000C046C04610BD10B5C046C04610BD10B5F3
:1001D000C046C04610BD10B5C046C04610BD10B5E3
:1001E000C046C04610BD10B5C046C04610BD10B5D3
:1001F000C046C04610BD10B5C046C04610BD10B5C3
:10020000C046C046C046C04610BD10B5C046C04638
:10021000C046C04610BD10B5C046C04610BD10B5A2
:10022000C046C04610BD10B5C046C04610BD10B592
:10023000C046C04610BD000030B589B0002414226D
:10024000564904A8FFF766FF54481430006803902D
:100250000020009001900290514801886846018179
:100260004F4841886846C1804D48818868468180F2
:100270004B48C1886846418049482030018868461B
:100280000180484800680006450F2B0000F01CF96B
:1002900005042E303E4178004248C0684005400DBC
:1002A00069460989884201D1089C1EE03D48C06822
:1002B0004005400D6946C988884201D1079C14E079
:1002C0003848C0684005400D69468988884201D198
:1002D000069C0AE03348C0684005400D69464988DD
:1002E000884201D1059C00E0049C4BE02E4C49E083
:1002F000684600882B4949698905890D884202D1E1
:100300006846C48901E0684684893BE00124E4032F
:1003100038E02448C06B8007800F032829D1684645
:1003200000892049C9684905490D884201D1089CC6
:1003300020E06846C0881B49C9684905490D8842C4
:1003400001D1079C16E0684680881649C9684905AE
:10035000490D884201D1069C0CE06846408811494D
:10036000C9684905490D884201D1059C02E0049CF9
:1003700000E00D4C0B48C06BC005000F444301E08A
:10038000002400BF00BF074800684005410F204619
:10039000C8400446204609B030BD000008050000F2
:1003A000000C1000002000400048E80110B5FFF7E5
:1003B00043FF0549086005480549486100208861F8
:1003C0000520086110BD000000000020FFFFFF00B5
:1003D00000E000E010B50D4949888805800D0C4902
:1003E0004969890A89020143094A5161074920394B
:1003F00009894805400D1146C968C90AC902014367
:10040000D160FFF7D3FF00F03BF810BD200C1000C7
:100410000020004010B5C046C04610BD10B5C04613
:10042000C04610BD10B5C046C04610BD10B5C04690
:10043000C04610BD10B5C046C04610BD10B5C04680
:10044000C04610BD10B5C046C04610BD10B5C04670
:10045000C046C046C04610BD10B5C046C046C046E6
:10046000C04610BD10B5C046C04610BD10B5C04650
:10047000C046C046C04610BD10B5C046C04610BDFF
:100480000E49086A096A01221207914389180B4A2A
:1004900011620B49C9680B4A1140094AD1601146E3
:1004A0000968B0221143064A11601146096AB02258
:1004B0001143034A1162014908627047002000405D
:1004C000401D02404FFF000030B47446641E257882
:1004D000641CAB4204D3635D5B00E31830BC184777
:1004E0001D46F8E702E008C8121F08C1002AFAD129
:1004F00070477047002001E001C1121F002AFBD1A4
:10050000704700207047000000093D0000127A008B
:100510000024F4004086510100366E0100800096F0
:10052000400500000000002004000000E40400007A
:10053000440500000400002004020000F404000050
:0405400000093D0071
:04000005000000C136
:00000001FF
